:100000005BC07FC099C57DC024C57BC07AC079C064
:1000100078C077C076C075C074C073C072C0090262
:1000200043000201008032090400000102020100C5
:100030000524001001042402020524060001052401
:10004000010301070583030800FF09040100020AF8
:1000500000000007050102080000070581020800F2
:1000600000220344006900670069007300700061AA
:100070000072006B0020005300650072006900618F
:10008000006C001C03640069006700690073007461
:100090000075006D0070002E0063006F006D00049D
:1000A0000309041201100102000008D0167E0800A6
:1000B000010102000100BF0811241FBECFE5D2E0FC
:1000C000DEBFCDBF21E0A8E1B1E001C01D92AA3E94
:1000D000B207E1F711E0A0E6B0E0E0EAF1E102C02A
:1000E00005900D92A831B107D9F710E0CCE5D0E02A
:1000F00003C02197FE014CD8CB35D107D1F788D664
:100100004DC87ECFCF92DF92EF92FF920F931F9355
:10011000CF93DF936C01EB017B01E40EF51E10E041
:1001200000E0CE15DF0561F06991D601ED91FC91FB
:100130000190F081E02DC6010995080F191FF1CF3C
:10014000C801DF91CF911F910F91FF90EF90DF9049
:10015000CF9008952FB7F8948091880190918901EC
:100160002FBF892B39F0E0918001F09181018081CE
:1001700090E0089590E080E00895F894EEE7F1E0D3
:1001800081E291E09183808393838283958384834A
:1001900081E491E09783868380E290E09187808775
:1001A0001386128678940895FC0180ED860F8A30BC
:1001B00040F4682F90819295907F690F608381E071
:1001C00008958FEB860F863010F46753F3CF8FE9D5
:1001D000860F67558A3170F380E00895FC01019025
:1001E0000020E9F73197AF01481B590BBC0187EAA2
:1001F00091E088CF1F93CF93DF93162FEA012881D8
:1002000024FF16C0298138E823272983212FFC01E8
:10021000CE010296DC0131913D9321501216DCF3A0
:10022000612F73D41C5F1883DF91CF911F910895C4
:100230002AE52883EBCFCF92DF92EF92FF920F93C4
:100240001F93CF93DF938091C501835087FD64C0D6
:100250009091C401ECE0F0E0E91BF109E853FE4F96
:100260009091C301903108F011C130E020E02817CF
:1002700008F040C09FB7F8944091880150918901DF
:100280009FBF60918601709187016417750779F1AE
:10029000DF01A20FB31F9C91A0917E01B0917F015D
:1002A0009C9340917E0150917F014F5F5F4F50932F
:1002B0007F0140937E016091840170918501461712
:1002C000570741F4409182015091830150937F017F
:1002D00040937E019FB7F894409188015091890125
:1002E0004F5F5F4F50938901409388019FBF2F5FFD
:1002F0003F4FBDCF2FB7F89480918801909189012D
:100300002FBF089718F08FEF8093C5018091C5012A
:10031000181614F41092C5018091610084FF41C049
:10032000C0916000CF3F09F43CC08C2FC93008F069
:1003300088E09C2F981B909360009091AB0128E877
:1003400092279093AB01CC2301F190918E01C7E0ED
:1003500097FD1BC020918C0130918D0196FF5BC1F0
:10036000ACEAB1E0F901982F44914D933196915048
:10037000D9F74FEF480F50E04F5F5F4F240F351F05
:1003800030938D0120938C01C82F6C2F8CEA91E063
:10039000BCD3CC5FCC3019F08FEF80936000C0935A
:1003A000610084E196B3987131F48150D9F71092CD
:1003B000C6011092C201D1E08111D0E090918F016D
:1003C000D91741F1882321F1F89408E010E0C0E04A
:1003D00080E8D82ECD2CCC0EC1BE9BD37C0184E30B
:1003E000E81689E0F8060CF4CC2DD69401501109DA
:1003F00089F78FEF8C0F81BF0C2F10E00F5F1F4F1D
:1004000081B78017110609F00CF40EC1C1BF7894B2
:10041000D0938F012FB7F8948091A5019091A601F8
:100420002FBF892B09F411C1E0919A01E83008F03F
:100430000CC181E08E0F80939A01F0E0A0919D01A4
:10044000B0919E012D91B0939E01A0939D0180914A
:10045000A1019091A201A817B90741F480919F01D1
:100460009091A00190939E0180939D013FB7F894D5
:100470008091A5019091A60101979093A601809388
:10048000A5013FBFEE56FE4F2083C4CF9D3209F039
:10049000BBC0883009F03ACF83EC8093AB018AE58A
:1004A0008093610010928E019081892F8076C9F12E
:1004B0008032A9F5818120EE280F223048F48FEF99
:1004C00097FD868190E890938E01809360001ECF07
:1004D0008232F9F440918A014F3FA1F028B381E0C4
:1004E00090E0042E01C0880F0A94EAF780958223D9
:1004F000228133812170332701C0220F4A95EAF708
:10050000822B88BB80919001811103C082E080938F
:100510009001808187FD03C081E08093910180E09C
:1005200027C022811092B401918191110AC01092CA
:10053000B50124EB31E082E030938D0120938C01F2
:1005400017C0953029F42093C60124EB31E0F4CF95
:10055000963009F040C09381913099F483EA90E09D
:1005600090938D0180938C0182E190E490938E01B1
:1005700097819111AACF9681981708F0A6CF892F5D
:10058000A4CF923041F48EE190E090938D0180935E
:100590008C0183E4EACF933041F7211108C08FE941
:1005A00090E090938D0180938C0184E0DECF213028
:1005B00041F483E890E090938D0180938C018CE16D
:1005C000D4CF223091F681E690E090938D01809314
:1005D0008C0182E2CACF983081F0993019F42093CF
:1005E0008B01B3CF9A3069F09B3009F0AECF9BE41A
:1005F0009093B7019093DF01A8CF2BE831E081E021
:100600009BCF24EB31E0FBCF80918E0187FF7ECE24
:10061000109260007BCED901ECEAF1E0982F4D9169
:1006200041939150E1F7A5CE74D28453994097FF3E
:1006300003C09195819591098E159F0514F4C1B75A
:100640007C0181B78F5F81BFDBCE8091B60184FFD3
:100650000CC080919101882331F146EB51E060E0BC
:1006600082E991E0C7DD1092910180919001882389
:1006700089F09091DE0194FF0DC04EED51E0823083
:1006800019F568E082E690E0B5DD80919001815037
:1006900080939001DF91CF911F910F91FF90EF9088
:1006A000DF90CF90089560919A016623F1F246EBB6
:1006B00051E082E991E09EDD1092C50181E08093D6
:1006C000910110929A01D1CF62E08AE690E0DCCFEE
:1006D0002FB7F89480918801909189012FBF892BC1
:1006E00051F48CE190E10197F1F700C00000A3DD27
:1006F00090E080E008958CE190E10197F1F700C06F
:10070000000099DDE0918001F09181018191F093E9
:100710008101E09380012091840130918501E217ED
:10072000F30741F4209182013091830130938101DC
:10073000209380019FB7F89420918801309189011E
:100740002150310930938901209388019FBF90E0A7
:1007500008958CE190E10197F1F700C000006BDD96
:100760002FB7F89480918801909189012FBF089547
:100770008F929F92AF92BF92CF92DF92EF92FF92B1
:100780006A017B012FB7F89480911D0190911E01A1
:10079000A0911F01B09120012FBF2FB7F894809036
:1007A0001D0190901E01A0901F01B09020012FBF4D
:1007B000C818D908EA08FB08C80ED91EEA1EFB1E95
:1007C0008CE190E10197F1F700C0000034DDD50124
:1007D000C4011C141D041E041F04FCF2FF90EF90C2
:1007E000DF90CF90BF90AF909F908F9008954FB7BC
:1007F000F8942091A5013091A6014FBF4091A3012B
:100800005091A4014217530751F48CE190E10197F4
:10081000F1F700C000000FDD90E080E00895E09166
:100820009B01F0919C01608320919B0130919C0180
:100830002F5F3F4F30939C0120939B014091A1017A
:100840005091A2012417350741F420919F01309166
:10085000A00130939C0120939B014FB7F894209105
:10086000A5013091A6012F5F3F4F3093A601209341
:10087000A5014FBF45E050E060E070E079DF81E026
:1008800090E008950F931F93CF93C62F8A0100978E
:1008900021F0FC0120812111A1DC6C2F70E084E0AB
:1008A000759567958A95E1F76A30A8F4605D87EAE7
:1008B00091E09DDF6C2F6F706A3078F4605D87EA9D
:1008C00091E095DFF8018081882349F0C801CF913C
:1008D0001F910F9183CC695CEACF695CF0CFCF9117
:1008E0001F910F910895C098C29AB29BFECF86E1E6
:1008F0008A95F1F7C09A8BE18A95F1F700C09EB115
:10090000892F807295FD04C094E090937D01089535
:1009100081E00895C29AC29BFECF8BE18A95F1F7E0
:1009200000C0C09886E18A95F1F7C298C09A77997D
:1009300005C083E080937D0180E0089581E0089503
:100940008EB98BE29BE19A95F1F700C08DB9B29B0D
:10095000FECF96E19A95F1F78DB9769BF3CF8BE1B7
:100960008A95F1F700C08FB19FEF9FB9B89A0895AB
:10097000CF92DF92EF92FF920F931F93CF93DF936B
:10098000082F80917D01816080937D0190916B01A2
:1009900090FD03C0826080937D01BCDF882319F144
:1009A000102FCBE6D1E0DD24DA94CC24C3947E0171
:1009B0008FEFE81AF80A80917D018370D1F1C29817
:1009C00088818FB980EFBCDFB8988EEFB9DF909146
:1009D0007D0180FF15C0892F817090FF0DC081E0DF
:1009E00080937D0180E0DF91CF911F910F91FF9067
:1009F000EF90DF90CF90089592E090937D01F3CF38
:100A0000892F8570843061F480916B0181608093BF
:100A10006B01C0927D017EDF811117C09AE0EDCF9E
:100A20009E7F90937D01E701115009F0C0CF81E0D6
:100A3000DACFB89880EF84DF8883113021F4DFB8F3
:100A40008EEF7EDFF0CF1FB8FBCF102FCBE6D1E0CB
:100A5000EBCF78941F920F920FB60F9211242F9321
:100A60003F938F939F93AF93BF9380911D0190917C
:100A70001E01A0911F01B091200130911C012CE7B3
:100A8000230F2D3728F02FEF230F0196A11DB11D45
:100A900020931C0180931D0190931E01A0931F01C0
:100AA000B09320018091180190911901A0911A0131
:100AB000B0911B010196A11DB11D80931801909367
:100AC0001901A0931A01B0931B01BF91AF919F919F
:100AD0008F913F912F910F900FBE0F901F901895FF
:100AE000A82FB92F80E090E041E050EA609530E017
:100AF00009C02D9182279795879510F08427952717
:100B0000305EC8F36F5FA8F30895EADF8D939D937D
:100B10000895A6E088279927AA9569F00197E1F33F
:100B2000B399FCCFB39BFECF81E09927A6B3019682
:100B300011F0A871D9F70895CF93CFB7CF93C3958C
:100B4000B39BE9F7B39B0BC0B39B09C0B39B07C032
:100B5000B39B05C0B39B03C0B39B01C0D8C00F9229
:100B6000DF93C091C401DD27C853DE4F012EB39B34
:100B700003C0DF910F90E6CF2F930F931F934F93F6
:100B80002FEF4F6F06B303FB20F95F933F9350E0C5
:100B90003BE065C016B30126502953FDC89556B3F6
:100BA000012703FB25F92F7306B3B1F05027102757
:100BB00013FB26F906B22230F0F000C016B301276D
:100BC00003FB27F90126502906B22430E8F54F77B8
:100BD000206816B30000F6CF50274F7D206206B282
:100BE000102F000000C006B300265029102713FB69
:100BF00026F906B2E2CF4F7B06B3206400C0DACFFD
:100C000001265029187106B269F14E7F2160012F2B
:100C100016B328C0002650294D7F06B22260102F3F
:100C200029C0012650294B7F06B22460012F2DC018
:100C300016B301265029477F2860000006B22EC057
:100C40004F7E06B3206130C0422706B34993002689
:100C50005029102706B24FEF13FB20F9297F16B356
:100C600079F2187159F10126502906B2012703FBC8
:100C700021F9237F06B371F2002650293150D0F0BC
:100C800006B2102713FB22F9277E16B351F2012674
:100C90005029012703FB06B223F92F7C49F20000FB
:100CA00006B3102713FB24F90026502906B22F792A
:100CB00039F270CF10E21ABF00271CC03B503195AB
:100CC000C31BD04010E21ABF0881033C21F10B3452
:100CD00011F12091C2011981110F1213EDCF4A8138
:100CE000441F093669F10D3211F0013E29F74F70AA
:100CF00009F0042F0093C7013F915F914F911F911D
:100D00000F912F91DF910F90CAB7C5FD18CFCF91EA
:100D1000CFBFCF9118952091C701222369F310917D
:100D2000C5011123D1F53430D2F13093C5012093A0
:100D3000C3011091C4013BE0311B3093C4012FC0AB
:100D40000091C50101304CF50AE54F7049F430912E
:100D5000610034FD25C000936100CBEAD1E024C0DE
:100D6000433049F03091B60134FD1AC00093B6010A
:100D7000C7EBD1E019C03091DE0134FD11C0009302
:100D8000DE01CFEDD1E010C0052710E000C021C08A
:100D9000052710E0C89508BB14C03AE501C032ED44
:100DA000032EC0E0D0E032E017B31861C39A08B355
:100DB00017BB58E120E84FEF20FF052708BB279518
:100DC00017951C3F28F700004552B0F720FF052774
:100DD000279508BB17951C3FB8F629913A9561F7FE
:100DE000077E1091C601110F08BBC250D04011F010
:100DF0001093C20110E21ABF086017B3177E402F8C
:100E0000477E54E05A95F1F708BB17BB48BB74CF37
:100E1000789480B7806880BF80B7806480BF8CB5CD
:100E200080648CBDCFEFCDBD80B7807F876080BFF1
:100E300089B7846089BF83B7887F83BF8AB58C7F79
:100E400081608ABD83B7877F83BF83B7887F8360D4
:100E500083BF86B1876086B9379AF89488B3877E56
:100E600088BBBB9A27EA86E99CE0215080409040ED
:100E7000E1F700C00000BB98AC9A8BB780628BBFD3
:100E80008BE48093B7018093DF018AE58093B601FC
:100E90008093DE0181E491E090939C0180939B011B
:100EA00090939E0180939D019093A00180939F0158
:100EB00081E691E09093A2018093A10120E230E0CD
:100EC0003093A4012093A3011092A6011092A501D2
:100ED00081E291E090937F0180937E019093810164
:100EE00080938001909383018093820181E491E05B
:100EF000909385018093840130938701209386012C
:100F00001092890110928801109290011092910123
:100F1000C0938A01789444EF51E060E070E087EA82
:100F200091E026DCC09AC29ABA9AB89ACFB98AE2FE
:100F30008DB980EF8EB983E0E82EF12C92E0C92EB6
:100F4000D12C01E010E024E0A22EB12C87EA91E040
:100F500000DC1816190654F060916A016623B1F39B
:100F600087EA91E044DC10926A01F0CF87EA91E0D1
:100F7000AFDBC82F8D3019F080E2CA3009F48DE064
:100F800080936A018FE98C0F8A3108F4C0528091F6
:100F90006801909169018230910509F464C050F5AF
:100FA0000097D9F0019791F66C2F85E691E0FCD877
:100FB000C33511F0C03531F4109369010093680115
:100FC00010926501C73529F0C23519F0CF3309F009
:100FD000BDCF1092690110926801109267011092C2
:100FE0006601C33521F510936901009368011092E1
:100FF0006501ACCF8330910509F475C0049709F001
:10100000A5CFE0916201809161018E1709F4AFC014
:10101000EF5FE0936201F0E0E559FE4F608160937D
:10102000660146E151E090E080E02CDCEACFC73574
:1010300061F48091650110926301880F80936B01C8
:10104000D0926901C092680181CFC23529F4F09233
:101050006901E09268017ACFCF3309F077CF8CE74E
:1010600090E0BCD880CF6C2F86E691E09DD880932D
:10107000640190916701980F90936701992399F00B
:10108000811179C0E0916301E23148F490916601E9
:10109000EF5FE0936301F0E0E559FE4F908310921B
:1010A000670110926601811151CFC03209F44ECF11
:1010B000C73509F44BCF8091630110927D018F5F9A
:1010C00057DC1092630181110EDC60E060936401D3
:1010D000662309F47ECF4EE051E080E191E0D2DB5F
:1010E00010926A0176CF6C2F86E691E05DD88093EE
:1010F000640190916701980F90936701811126CF49
:10110000992371F1809166019091650110926201BD
:1011100080936101990F916090936B0110927D0112
:101120008F5F26DC882371F0DEDB882359F0109274
:1011300064011092670110926601B0926901A09259
:1011400068015FCF60917D0160936401662389F33C
:101150004EE051E083E191E095DB10926A01E9CF26
:10116000C03209F4F3CECA3009F033CFEFCE8DE0B0
:1011700091E034D8B5CF923009F484CFE7CEE7EAD6
:10118000F1E01382128280E790E0918380830895DA
:10119000EE0FFF1F0590F491E02D0994F894FFCF16
:1011A000FF5AA12000000000020003000000000020
:1011B000F7038200A9036803AA00BD003F20202096
:1011C000202020203A207072696E74207468697340
:1011D0002068656C700D0A533C616464723E203A6D
:1011E000207365742049324320616464722028684A
:1011F0006578290D0A573C627974653E2A3A207752
:10120000726974652062797465732028686578292D
:101210000D0A50202020202020203A20707573686D
:101220002028656E64206F66207772697465290DC9
:101230000A523C6E756D3E20203A20726561642032
:1012400062797465732028686578290D0A0D0A0093
:0812500057210052210020008B
:00000001FF
